:020000040800F2
:1000000010070020010100080F28000897250008AC
:100010000D280008BF030008393000080000000068
:1000200000000000000000000000000013010008B4
:100030001B0400080000000017010008CD2A00087A
:100040001B0100081B0100081B0100081B01000820
:100050001B0100081B0100081B0100081B01000810
:100060001B0100081B0100081B010008C103000858
:10007000CD030008D9030008E50300081B010008B0
:10008000F10300081B010008910100081B01000892
:100090001B0100081B0100081B0100081D040008CB
:1000A0001B0100081B0100081B0100081B010008C0
:1000B0001B0100081B0100081B0100081B010008B0
:1000C0001B0100081B0100081B0100081B010008A0
:1000D000352800081B0100081B0100081930000822
:1000E0001B0100081B0100081B010008DFF80CD0F1
:1000F00000F03CF800480047E530000810070020F9
:100100000648804706480047FEE7FEE7FEE7FEE7B1
:10011000FEE7FEE7FEE7FEE7FEE7FEE7492B000805
:10012000ED00000840EA01039B0703D009E008C97D
:10013000121F08C0042AFAD203E011F8013B00F8AC
:10014000013B521EF9D27047D2B201E000F8012BF8
:10015000491EFBD270470022F6E710B513460A4647
:1001600004461946FFF7F0FF204610BD064C074D28
:1001700006E0E06840F0010394E807009847103477
:10018000AC42F6D3FFF7B6FF70310008903100089B
:10019000014800F0FEB900006000002070B5044680
:1001A00000688168C943C9071CD1816821F0010139
:1001B000816000F0FDFD05460FE000BF00F0F8FD96
:1001C000401B022809D9A06A40F01000A062E06A32
:1001D00040F00100E062012070BD20688068C043EB
:1001E000C007EBD0002070BD002805D10A464FF4AF
:1001F0008051024800F0D6BD70470000000C01405D
:1002000070B50024054621462046FFF7EDFF28463D
:1002100002F016FB2046BDE870400121FFF7E4BF65
:10022000114800B5816985B041F00801816180699C
:10023000694600F0080004904FF4807000900B486D
:100240000190002002900A4800F0CEFC0422012117
:10025000172000F021FE172000F012FE0820FFF703
:10026000CFFF05B000BD00000010024000002110CB
:10027000000C014010B501210020FFF7B5FF02205E
:10028000FFF7BEFF0620FFF7BBFF142000F088FC3D
:100290001F48A0211F4C017008214170C0214172EC
:1002A000212181700021C17020220271A278427147
:1002B00062788271C1710172142000F071FC00F04B
:1002C00040F8E021032000F04BF8142000F068FC17
:1002D0006078012140F0F002002000F059F814206D
:1002E00000F05EFCD021022000F03AF8FC2103204F
:1002F00005E0002000F010F820700021042000F03C
:100300002FF8142000F04CFC20783E28F1D110BDCD
:10031000F00200202000002010B500210846FFF761
:1003200063FF202002F08CFA002002F089FA0020FE
:1003300002F086FA044601210020FFF755FF20460F
:1003400010BD10B5002421462046FFF74DFF1120B7
:1003500002F076FA2046BDE810400121FFF744BFC5
:1003600070B500240E46054621462046FFF73CFFA7
:1003700045F0400002F064FA002002F061FA3046D5
:1003800002F05EFA2046BDE870400121FFF72CBF65
:1003900070B50C46164605460021FFF725FF44F0D0
:1003A000400002F04DFA002002F04AFA304602F016
:1003B00047FA2846BDE870400121FFF715BFFEE768
:1003C000014800F063BA000090000020014800F0EE
:1003D0005DBA000080020020014800F057BA00001A
:1003E000B8020020014800F051BA000020010020AE
:1003F000014800F04BBA00004802002010B5046824
:1004000063604368102B036803D099600068C26082
:1004100010BD9A600068C16010BDFEE74FF48070A7
:1004200000F0D6BB70470000F8B50025009590F8A5
:100430002420AE46012A1ED0012280F824204A68DA
:100440001F244FF47873072A17D20668776B93FA44
:10045000A3FCBCFA8CFC521E02FB0CFC04FA0CF44C
:10046000A74393FAA3F3B3FA83F30C685A43944077
:10047000274377632DE00220F8BD06680D2A14D2C9
:10048000376B93FAA3FCBCFA8CFCD21F02FB0CFC6A
:1004900004FA0CF4A74393FAA3F3B3FA83F30C68BA
:1004A0005A4394402743376313E0F76A93FAA3FC57
:1004B000BCFA8CFC0D3A02FB0CFC04FA0CF4A743CA
:1004C00093FAA3F3B3FA83F30C685A439440274397
:1004D000F7620A683823072406680A2A14D3F768E3
:1004E00093FAA3FCBCFA8CFC0A3A02FB0CFC04FA5B
:1004F0000CF4A74393FAA3F3B3FA83F38C685A433B
:1005000094402743F76012E0376993FAA3FCBCFAE2
:100510008CFC02FB0CFC04FA0CF4A74393FAA3F343
:10052000B3FA83F38C685A439440274337610A68CF
:10053000102A01D0112A20D1124B02689A4217D1F9
:1005400093681B0219D4936843F40003936009680D
:10055000102912D10C490D4A0968B1FBF2F101EBE7
:100560008101490000E0491E00910029FBD104E00F
:10057000816A41F020018162012580F824E028464B
:10058000F8BD0000002401402800002040420F0078
:10059000704710B5044600684168890626D5016891
:1005A000890723D5A16AC90603D4A16A41F4007161
:1005B000A1628168C1F34241072910D1E16871B994
:1005C000416821F020014160A06A20F48070A0629F
:1005D000A06AC00403D4A06A40F00100A0622046D3
:1005E000FFF7D6FF21686FF01200086020684168AD
:1005F00009062ED5016849072BD5A16AC90603D47F
:10060000A16A41F40051A1628168C1F30231072956
:1006100009D04168490515D48168C1F342410729D1
:1006200010D1E16871B9416821F080014160A06A90
:1006300020F48050A062A06AC00503D4A06A40F0F4
:100640000100A0622046FFF7EDFE21686FF00C006C
:1006500008602068416849060DD50068C0070AD0C7
:10066000A06A40F48030A062204600F09FF8216824
:100670006FF00100086010BD2DE9F04104004FF05B
:10068000000513D0A06A002628B9E66284F8246029
:10069000204600F08DF82046FFF780FDA16AC906CC
:1006A00000D420B1A06A40F01000A06278E0A16AF6
:1006B00021F4885141F00201A1626268E1690227D8
:1006C0000A43E16897FAA7F70B46B7FA87F7B940EC
:1006D0000A43A1684FF48077B94209D0012907D0B5
:1006E0005FF00001D4F814C0BCF1010F02D00AE0A1
:1006F0003946F7E7F3B1A36A43F02003A362E36A44
:1007000043F00103E3622368D3F804C02CF4694C7E
:100710004CEA010CC3F804C021688B68DFF884C080
:1007200003EA0C0313438B60A168B94210D001297E
:100730000ED016E04FF4604CA3699CFAACFCBCFAF6
:100740008CFC5B1E03FA0CF30B4343F40061DAE705
:100750004FF47001256991FAA1F1B1FA81F16D1E92
:100760008D402168CB6A23F470032B43CB62216850
:1007700089680D4B1940914208D1E662A16A21F0C7
:10078000020141F00101A162BDE8F081A06A20F000
:10079000020040F01000A062E06A40F00100E06258
:1007A0000120F1E7FDF7E1FFFE0E1FFF704700009B
:1007B00030B5054600681A4985B088422DD11948E0
:1007C000816941F4007181618069694600F40070BB
:1007D00004907320009003200190134800F004FA65
:1007E000134C1248206000206060A0608020E06010
:1007F00040002061800060612020A061C001E061B4
:10080000204600F079F92C62002211461220656220
:1008100000F042FB122000F033FB05B030BD0000B9
:10082000002401400010024000080140080002407E
:10083000900000202DE9F04104460068016821F095
:100840000101016000F0B4FA054600264FF47A7702
:1008500010E000BF00F0ACFA401BB8420AD954F8CF
:10086000340F40F0200044F8140903206070267013
:10087000BDE8F08120680068C007EBD1012084F852
:10088000210084F820600020F2E700002DE9F05FED
:10089000DFF860820446D8F80020DFF858B2954DA2
:1008A000944E944F0068DFF84C92DFF848A20BF1A9
:1008B000080B1C35303644374FF400614FF4004CC0
:1008C0004FF4002E09F158090AF16C0A584501D17C
:1008D000082316E0A84201D1802312E0B04201D1E2
:1008E0000B460EE0B84201D163460AE0484501D10B
:1008F000734606E0504502D14FF4000301E04FF08B
:1009000000631A4231D00268D24312072DD4026824
:1009100022F0080202602068584501D1082114E045
:10092000A84201D1802110E0B0420ED0B84201D1DE
:1009300061460AE0484501D1714606E0504502D1C2
:100940004FF4000101E04FF00061C8F80410606B43
:1009500040F001006063042084F82100002084F846
:100960002000216B09B1204688476248D0F800C0BA
:100970004FF4806120680A010B044FF4802E584523
:1009800002D14FF0040816E0A84202D14FF040080F
:1009900011E0B04201D188460DE0B84201D1904645
:1009A00009E0484501D1F04605E0504502D14FF439
:1009B000800800E098461CEA080F33D0D0F800C049
:1009C0006FEA0C0C5FEA4C7C2CD4D0F800C05FEAD4
:1009D0008C6C05D4D0F800C02CF0040CC0F800C01A
:1009E0002068584501D1042113E0A84201D14021DB
:1009F0000FE0B0420DD0B84201D1114609E04845A0
:100A000001D1714605E0504502D14FF4800100E06C
:100A1000194638484160112084F82100E16A09B183
:100A200020468847334AD2F800C05B4620685115FB
:100A30004FF4005B4FF4003E984202D14FF00208A1
:100A400017E0A84202D14FF0200812E0B04201D1D5
:100A500088460EE0B84201D1D8460AE0484501D1A7
:100A6000F04606E0504502D14FF4001801E04FF087
:100A700000781CEA080F3BD0D0F800C06FEA0C0CDD
:100A80005FEA8C7C34D4D0F800C05FEA8C6C05D46B
:100A9000D0F800C02CF0020CC0F800C020689842CA
:100AA00001D1022114E0A84201D1202110E0B0427E
:100AB0000ED0B84201D159460AE0484501D17146ED
:100AC00006E0504502D14FF4001101E04FF00071F3
:100AD0005160606B6063012084F82100002084F87D
:100AE0002000A16A002903D02046BDE8F05F084736
:100AF000BDE8F09F0000024070B520B190F82110D1
:100B0000002411B103E0012070BD80F820400221D3
:100B100080F8211003681A6843F6F0718A43D0E91F
:100B200001152943D0E90356354329434569294333
:100B300085692943C569294311431960446301212B
:100B400080F82110002070BD70B5044690F8200098
:100B5000012823D0012084F82000022084F82100FD
:100B60002068056825F0010505602046FFF746FC72
:100B70002068016841F0020101602068016841F0CD
:100B8000040101602068016841F0080101602068EB
:100B9000016841F001010160002070BD022070BDBC
:100BA00031B500F005F9044600F002F90099001B88
:100BB0008842F9D338BD00001C23024A0249034889
:100BC00001F060B92C00002004000020C8000020C3
:100BD000044910B50A68024202D00860FFF7ECFF32
:100BE00010BD0000140401402DE9F84FDFF890A17A
:100BF00000220AF1040B144601274FF00F090BF1F4
:100C0000040E00BF0B6807FA04F52B40AB4274D109
:100C1000DFF870C14E68A6EB0C0866452BD00DDCE2
:100C2000032E34D005DC36B3012E19D0022E2FD17D
:100C30001BE0112E16D0122E2AD119E0B8F5881F0C
:100C400019D006DCB8F5803F15D0B8F5801F1FD14C
:100C500011E0B8F5001F0ED0B8F5041F18D10AE056
:100C6000CA6815E0CA68121D12E0CA6808320FE0AF
:100C7000CA680C320CE08A682AB1012A4FF00802D7
:100C800003D0456104E0042202E0056100E0002297
:100C9000FF2B01D8064601E000F104064FEA840567
:100CA00001D9A5F12005D6F800C009FA05F82CEA0B
:100CB000080C02FA05F54CEA050CC6F800C04D68B0
:100CC000ED0057D5304DAE6946F00106AE61AD6915
:100CD00024F0030605F0010500952C4D06EB050CEC
:100CE000DCF80850A6074FEA167809FA08F6B5436B
:100CF000274EB04202D1002610E03BE0254EB04224
:100D000001D101260AE0244EB04201D1022605E0BD
:100D1000224EB04201D1032600E0042606FA08F66E
:100D20002E43CCF808604D68DAF80060ED035546B4
:100D300001D51E4300E09E432E604D68DBF8006045
:100D4000AD035D4601D51E4300E09E432E604D6815
:100D5000DEF80060ED02754601D51E4300E09E43BB
:100D60002E604D68AD020E4D2E6801D51E4300E089
:100D70009E432E60641C102CFFF444AFBDE8F88F36
:100D8000000401400000111000100240000001406A
:100D900000080140000C0140001001400014014017
:100DA0000C0401400AB1016170470904FBE700002F
:100DB00001480068704700002400002002480168D4
:100DC000491C01607047000024000020074810B54E
:100DD000016841F010010160032000F07DF800205F
:100DE00000F006F800F016F8002010BD00200240C8
:100DF00010B5044600F05CFA4FF47A71B0FBF1F0E4
:100E000001F0DEF800222146501E00F045F80020D7
:100E100010BD0000184808B5816941F001018161E9
:100E2000806900F001000090032000F055F80022D6
:100E300011466FF00B0000F02FF8002211466FF002
:100E40000A0000F029F8002211466FF0090000F0B6
:100E500023F800221146101F00F01EF80022114650
:100E6000501E00F019F80548416821F0E06141F09A
:100E70000071416008BD0000001002400000014008
:100E800000F01F02012191404009800000F1E020A4
:100E9000C0F8001170470000F0B40E4B1B680C4600
:100EA000C3F30223C3F10705042D00D90425191D3E
:100EB000072901D2002300E0DB1E012606FA05F116
:100EC000491E214099409E40761E16403143F0BC99
:100ED00001F09FBC0CED00E0064900F00702086835
:100EE0004FF6FF03184040EA0220034A104308600F
:100EF000704700000CED00E00000FA052DE9F84312
:100F000005460078444CC00771D0E06940F080503D
:100F1000E061E069414E00F080500090306840F49C
:100F200080703060FFF744FF074604E0FFF740FFA2
:100F3000C01B642831D83068C005F7D5206AA9885D
:100F400000F4407001F44071884250D0206A0126BC
:100F5000310491FAA1F2B2FA82F29300304A20F4FD
:100F600040701344C3F8006491FAA1F1B1FA81F121
:100F700002EB81010023C1F800342062800730D5E4
:100F8000FFF716FFB046074641F28839022607E010
:100F9000FFF70EFFC11B494502D90320BDE8F883C6
:100FA00096FAA6F0B0FA80F040F04000B8EB501F7F
:100FB00001D120680BE096FAA6F0B0FA80F040F07C
:100FC0004000B6EB501F01D1206A00E0606A96FA3B
:100FD000A6F2B2FA82F202F01F0208FA02F1084207
:100FE000D6D0206A696820F44070084320622878CF
:100FF000800705D56068A96820F440400843606018
:101000002878C00605D56068E96820F480000843A8
:1010100060600020C2E70000001002400070004045
:1010200000004242704700002DE9F047DFF8789257
:1010300005460E46D9F80000022300F007070120FC
:1010400041044206994C41F28838B74271D2D9F82E
:1010500000C02CF0070C4CEA060CC9F800C0D9F807
:10106000007007F00707B7426FD12E78B60705D595
:101070006668AF6826F0F0063E4366602E78F60795
:1010800056D06E68012E0BD0022E1ED093FAA3F11B
:10109000B1FA81F141F02001490924D0216823E00F
:1010A00091FAA1F2B2FA82F242F02002520901D082
:1010B000226800E0626A91FAA1F1B1FA81F101F0CF
:1010C0001F018840024240D017E092FAA2F1B1FA23
:1010D00081F141F02001490901D0216800E0616AF5
:1010E00092FAA2F202E0616A93FAA3F2B2FA82F2F1
:1010F00002F01F029040014227D0606820F00300F8
:1011000030436060FFF754FE06466868012809D046
:101110000228474613D01EE0FFF74AFE801BB84264
:1011200001D992E047466068C0F381000128F3D1FD
:10113000A1E015E0FFF73CFE801BB84273D8606861
:10114000C0F381000228F5D195E092E0FFF730FE70
:10115000801BB84279D8606810F00C0FF6D18AE095
:101160002F78BF0707D56768D5F808C027F0F007C4
:1011700047EA0C0767602F78FF076DD06F68012F73
:101180000BD0022F1ED093FAA3F1B1FA81F141F0F6
:101190002001490924D0216823E091FAA1F2B2FA92
:1011A00082F242F02002520901D0226800E0626A15
:1011B00091FAA1F1B1FA81F101F01F0188400242D8
:1011C00057D017E092FAA2F1B1FA81F141F0200173
:1011D000490901D0216800E0616A92FAA2F202E0B6
:1011E000616A93FAA3F2B2FA82F202F01F0290400F
:1011F00001423ED0606820F0030038436060FFF792
:10120000D7FD07466868012807D0022811D01FE0E3
:10121000FFF7CEFDC11B414517D86068C0F38100C0
:101220000128F5D118E010E0FFF7C2FDC11B4145D0
:101230000BD86068C0F381000228F5D10CE000BF34
:10124000FFF7B6FDC11B414502D90320BDE8F08779
:10125000606810F00C0FF3D1D9F8001021F00701ED
:101260003143C9F80010D9F8000000F00700B0427F
:1012700001D00120EAE72878400705D56068E968D1
:1012800020F4E060084360602878000706D56068B5
:10129000296920F4605040EAC10060600020FFF737
:1012A000A7FD0020D2E7000000200240001002400D
:1012B00000B500F043F808494968F02292FAA2F21A
:1012C00001F0F001B2FA82F2D140044A515CC84008
:1012D0000349086000BD00000010024060310008B2
:1012E0002800002000B5FFF7E3FF074949684FF4E5
:1012F000E06292FAA2F201F4E061B2FA82F2D14025
:10130000024A515CC84000BD001002406031000834
:1013100000B5FFF7CDFF074949684FF4605292FAD4
:10132000A2F201F46051B2FA82F2D140024A515C59
:10133000C84000BD001002406031000810B51AA37B
:1013400085B00FCB8DE80F001BA01C4B00680490EC
:101350005A681B4802F00C01042902D0082902D067
:10136000184805B010BD4FF4701494FAA4F402F4B8
:101370007011B4FA84F4E140D2031DF801100FD5C6
:101380005A684FF4003393FAA3F302F40032B3FA2D
:1013900083F3DA4004AB9A5CB0FBF2F04843E0E739
:1013A00009484843DDE70000020304050607080971
:1013B0000A0B0C0D0E0F101001020000001002406D
:1013C000001BB70000127A0000093D0010B5044C64
:1013D000A068000603D5FFF725FE8020A07210BD8F
:1013E000001002402DE9F84F05460078FA4EC0077C
:1013F0004FF0010425D070686704C0F38100012814
:1014000007D07068C0F3810002281BD17068C00348
:1014100018D597FAA7F0B0FA80F040F02000400904
:1014200001D0306800E0706A97FAA7F1B1FA81F153
:1014300001F01F0104FA01F1084202D06868002897
:1014400076D081E0306820F480303060306820F45D
:1014500080203060FFF7ACFC804605E0FFF7A8FC79
:10146000A0EB080064287CD897FAA7F0B0FA80F0C7
:1014700040F02000400901D0306800E0706A97FA1F
:10148000A7F1B1FA81F101F01F0104FA01F108425C
:10149000E4D16868B0F5803F0BD010B1B0F5A02F53
:1014A00011D0306820F480303060306820F4802023
:1014B00002E0306840F480303060686820B3FFF7A5
:1014C00077FC80460AE0306840F480203060F0E726
:1014D000FFF76EFCA0EB08006428C4D897FAA7F0C9
:1014E000B0FA80F040F02000400901D0306800E000
:1014F000706A97FAA7F1B1FA81F101F01F0104FABD
:1015000001F10842E4D01FE0FFF752FC804605E0FD
:10151000FFF74EFCA0EB08006428A4D897FAA7F0C8
:10152000B0FA80F040F02000400902D0306801E0BD
:10153000B7E0706A97FAA7F1B1FA81F101F01F01E3
:1015400004FA01F10842E3D12878DFF8908280079D
:101550004FF000094FF002075AD5706810F00C0FD9
:1015600000E07AE14FF0F80B07D07068C0F381001B
:1015700002281BD17068C00318D497FAA7F0B0FAFC
:1015800080F040F02000400901D0306800E0706A2F
:1015900097FAA7F1B1FA81F101F01F0104FA01F104
:1015A00008422AD0286901287BD126E0286980B327
:1015B00094FAA4F0B0FA80F048F82040FFF7F8FB66
:1015C000824605E0FFF7F4FBA0EB0A00022884D86E
:1015D00097FAA7F0B0FA80F040F02000400901D05F
:1015E000306800E0706A97FAA7F1B1FA81F101F072
:1015F0001F0104FA01F10842E4D030689BFAABF213
:101600006969B2FA82F220F0F80091400843306034
:1016100025E0FFE794FAA4F1B1FA81F148F82190AE
:10162000FFF7C6FB824605E0FFF7C2FBA0EB0A000E
:101630000228CCD897FAA7F0B0FA80F040F020004A
:10164000400901D0306800E0706A97FAA7F1B1FA5A
:1016500081F101F01F0104FA01F10842E4D1287878
:1016600000076ED5A869B8B394FAA4F0B0FA80F078
:1016700008EB8000C0F88044FFF79AFB824605E043
:10168000FFF796FBA0EB0A000228A0D897FAA7F074
:10169000B0FA80F040F06000B4EB501F02D1306827
:1016A0000CE096E197FAA7F0B0FA80F040F0600005
:1016B000B7EB501F01D1306A00E0706A97FAA7F1CA
:1016C000B1FA81F101F01F0104FA01F21042D7D002
:1016D0000120FFF765FA34E0FFE794FAA4F1B1FACC
:1016E00081F108EB8101C1F88094FFF761FB82462C
:1016F00006E000BFFFF75CFBA0EB0A00022898D8C9
:1017000097FAA7F0B0FA80F040F06000B4EB501FF9
:1017100001D130680BE097FAA7F0B0FA80F040F002
:101720006000B7EB501F01D1306A00E0706A97FA91
:10173000A7F1B1FA81F101F01F0104FA01F21042A0
:10174000D8D12878400770D5F06940F08050F0611A
:10175000F069DFF88CB000F080500090DBF80010EA
:1017600041F48071CBF80010FFF722FB824605E0C0
:10177000FFF71EFBA0EB0A0064286ED8DBF8000020
:10178000C005F5D5306A20F001003062306A20F0E3
:1017900004003062FFF70CFB834641F2883A05E013
:1017A000FFF706FBA0EB0B01514556D897FAA7F0BF
:1017B000B0FA80F040F04000B4EB501F01D1306827
:1017C00011E097FAA7F0B0FA80F040F04000B7EBD4
:1017D000501F07D1306A06E000100240000042426C
:1017E00000700040706A97FAA7F1B1FA81F101F038
:1017F0001F0104FA01F10842D2D1E86801280AD099
:1018000008B1052812D0306A20F001003062306A39
:1018100020F0040002E0306A40F001003062E86825
:1018200098B3FFF7C5FA83460CE05AE0306A40F0FF
:1018300004003062EFE700BFFFF7BAFAA0EB0B013C
:1018400051450AD897FAA7F0B0FA80F040F040006E
:10185000B4EB501F02D130680CE09DE097FAA7F07E
:10186000B0FA80F040F04000B7EB501F01D1306A71
:1018700000E0706A97FAA7F1B1FA81F101F01F0256
:1018800004FA02F10842D7D02BE0FFE7FFF790FA05
:10189000834605E0FFF78CFAA0EB0B0151457BD89E
:1018A00097FAA7F0B0FA80F040F04000B4EB501F78
:1018B00001D130680BE097FAA7F0B0FA80F040F061
:1018C0004000B7EB501F01D1306A00E0706A97FA10
:1018D000A7F1B1FA81F101F01F0204FA02F1084206
:1018E000D8D1E86980B37168C1F38101022970D051
:1018F0004FF080714F000228484609D091FAA1F1BB
:10190000B1FA81F148F82100FFF752FA054669E083
:10191000894691FAA1F1B1FA81F1C24648F8210055
:10192000FFF746FA804605E0FFF742FAA0EB080011
:10193000022854D897FAA7F0B0FA80F040F02000BF
:10194000400902D0306801E061E0706A97FAA7F1BF
:10195000B1FA81F101F01F0104FA01F10842E3D16B
:10196000286AB0F5803F05D17068A96820F400307E
:1019700008437060D5E908010843716821F47411C7
:101980000843706099FAA9F0B0FA80F04AF8204054
:10199000FFF70EFA054606E021E000BFFFF708FA60
:1019A000401B02281BD897FAA7F0B0FA80F040F04D
:1019B0002000400901D0306800E0706A97FAA7F172
:1019C000B1FA81F101F01F0104FA01F10842E5D0FA
:1019D0001DE01EE0FFF7ECF9401B022802D90320AE
:1019E000BDE8F88F97FAA7F0B0FA80F040F0200039
:1019F000400901D0306800E0706A97FAA7F1B1FAA7
:101A000081F101F01F0104FA01F10842E2D1002046
:101A1000E6E70120E4E7704708B501684A68D24369
:101A2000520609D48A68D243D20705D18A68D243C4
:101A3000520601D5816C08E04A68D243120608D4E8
:101A40008A68D243920704D4C16C01B05DF804EBFC
:101A500008474A68D243920635D48A68D243D206F0
:101A600006D4426D42F0020242656FF010028A60B5
:101A700001688A68D243920609D4426D42F001029D
:101A800042658A680A6822F040020A600092016892
:101A90008A68D24352060AD490F85120122A06D0FE
:101AA000426D42F004024265CA688A680092426D43
:101AB000002A08D04A6822F0E0024A60012180F83A
:101AC0005110FFF7A8FF08BD10B5040003D094F82B
:101AD000510010B104E0012010BD204600F038F89C
:101AE000022084F851002068016821F04001016063
:101AF000D4E901010843D4E90312114308436169A1
:101B00000843218B01F400710843E1690843216A0D
:101B10000843A16A084321680860A069042101EA1A
:101B20001040616A0843216848602168E06A0861E2
:101B30002068C16921F40061C16104490020087076
:101B40006065012084F85100002010BD23000020B2
:101B500010B50068194986B088422CD11848C1696F
:101B600041F48041C161C069164C00F4804004908A
:101B70004FF420400090022001900320039069461A
:101B80002046FFF731F800214FF48040CDE90001F5
:101B9000029169462046FFF727F800220121242000
:101BA000FFF77AF92420FFF76BF9074800684168CE
:101BB00041F08001416006B010BD000000380040D7
:101BC00000100240000C0140C80000207047704720
:101BD0002DE9F8430025DDF820800446ADF80050DB
:101BE00090F85100012803D094F8510022287DD1AB
:101BF00069B162B15BB194F85000012876D001263A
:101C000084F8506094F85100012803D005E00120C9
:101C1000BDE8F883322084F851006565A263A3878C
:101C2000E3872163A386E386A564E564A06A4FF495
:101C30000057B84209D12068016821F400510160C1
:101C40002068016841F4005101602068016849067C
:101C500003D4016841F040010160E0684FF48271F3
:101C6000B0F5006F606807D0002867D088426ED159
:101C7000E08E012862D06AE020B188420CD1E08E6B
:101C8000012809D1206B21680088C860206B801C66
:101C90002063E08E401EE086E08E80B9A06AB842E4
:101CA00044D12068016841F4805101603EE0206821
:101CB000C068A16B0880A06B801CA0639EE04346B7
:101CC00000220221204600F0B2FE002874D1206BD1
:101CD00021680088C860206B801C2063E08E401E55
:101CE0000004000CE08609D1A06A00E0C7E0B84219
:101CF00004D12068016841F480510160434600220C
:101D00000121204600F093FE00286FD12068C068B2
:101D1000A16B0880A06B801CA063E08F401EE08751
:101D2000E08E0028CBD1606800286AD143460022AB
:101D30000121204600F07BFEF0BBB8E7206B411C80
:101D4000216321680078C860E08E401EE086E08E46
:101D500098B9A06AB84204D12068016841F4805162
:101D60000160434600220121204600F060FE18BBBE
:101D70002068C068A16B087040E043460022022141
:101D8000204600F054FEB8B9206B411C2163216845
:101D90000078C860E08E401E0004000CE08607D189
:101DA000A06AB84204D12068016841F48051016002
:101DB00000224346012100E018E0204600F037FEF3
:101DC000A0B92068C168A06B421CA2630170E08FBB
:101DD000401EE087E08E0028CFD1606888B9434676
:101DE00000220121204600F022FE08B103200FE767
:101DF0002068C168A06B421CA2630170E08F401E86
:101E0000E087A06AB84210D1434600220121204653
:101E100000F00DFE18B1606D40F002000FE0206888
:101E2000C068ADF80000BDF80000434601228021E3
:101E3000204600F0FCFD20B1606D40F010006065B0
:101E4000D4E784F85160A06AB84214D12068816850
:101E5000C943C9060FD4616D41F002016165016893
:101E600021F4005101602068016841F400510160D3
:101E700084F85050CBE684F850500020C8E6022089
:101E8000C6E6000070B5044690F8510001280AD05B
:101E90006068B0F5827F71D1A06800286ED194F897
:101EA000510022286AD1F1B1EAB1E3B194F85000AF
:101EB000012863D0012084F8500094F851002228B2
:101EC00002D0322084F85100002565652163A38685
:101ED000E386A263A387E387A564E564A06AB0F5FF
:101EE000005F02D00BE0012070BD2068016821F482
:101EF000005101602068016841F40051016094F8CC
:101F00005100222832D0616C1D48C8621D48616CA6
:101F10001D4E8862606C06632168E38F0C31A26BF2
:101F2000606CFEF711FE2068416841F001014160DC
:101F300094F851003228206C1ED005632268E38E8D
:101F40000C32216B206CFEF7FFFD2068016849060A
:101F500003D4016841F0400101602068416841F00C
:101F60000201416084F85050002070BD616C074848
:101F7000C8620748CBE701E00663DFE7022070BDD7
:101F8000892800086D290008612800087F280008BA
:101F9000932800080248012101701C2141807047EC
:101FA0000000002070474FF0E0210428086903D0AA
:101FB00020F004000861704740F00400FAE7704721
:101FC00010B5401EB0F1807F01D3012010BD4FF04D
:101FD000E02460610F21601700F01BFC0020A0616D
:101FE00007202061002010BD10B5FFF7E8FF10BDED
:101FF00030B590F83820012A20D0012280F838200E
:10200000022380F8393003685C6824F070045C6057
:1020100003685C680D682C435C6003689C6824F06E
:1020200080049C6003689C6849680C439C6080F84D
:102030003920002180F83810084630BD022030BD1C
:102040001FB50068094988420FD130200090022056
:102050000190039069460648FEF7C6FD05484168B1
:1020600021F4406141F4006141601FBD0004004063
:10207000000C01400000014070B5044690F83800A3
:102080000D4601280DD0012684F83860022084F81E
:10209000390042B1042A18D0082A2AD00C2A4DD17E
:1020A00039E0022070BD206800F0A4FD206881693D
:1020B00041F0080181612068816921F0040181619A
:1020C000206881692A69114311E0206800F0BAFD97
:1020D0002068816941F4006181612068816921F48F
:1020E00080618161206881692A6941EA02218161F8
:1020F00024E0206800F0D2FD2068C16941F00801A9
:10210000C1612068C16921F00401C1612068C16911
:102110002A69114311E0206800F0ECFD2068C169D4
:1021200041F40061C1612068C16921F48061C1612D
:102130002068C1692A6941EA0221C16184F83960D5
:10214000002084F8380070BD10B5040003D094F866
:10215000390010B107E0012010BD002084F83800DC
:10216000204600F00DF8022084F83900211D206877
:1021700000F00EFD012084F83900002010BD0000A1
:1021800008B500680649884208D10648C16941F08F
:102190000201C161C06900F00200009008BD0000AA
:1021A000000400400010024010B504460068416978
:1021B00021F0C0014161206B08B1FEF73BFB606B71
:1021C00008B1FEF737FB012084F83900002010BD6C
:1021D0007047000038B5044600680168C26811F015
:1021E000010F02F4807204D01AB1E16B41F00101D9
:1021F000E1630168C1F34002416901F0010122B1CC
:1022000019B1E26B42F00402E2630268C2F3800299
:1022100022B119B1E26B42F00202E2630268C2F33A
:10222000C00222B119B1E16B41F00801E16301681C
:10223000C068C1F3401100F0200019B110B1204670
:1022400000F0AAFD20680168C068C1F3C01100F069
:10225000800019B110B1204600F062FE21680868C4
:10226000CA68C0F3801002F04002012570B16AB163
:10227000CA68204622F04002CA6094F83910322918
:1022800011D080F8395000BF00F084F9E06B0028CD
:1022900008D0206801684068009084F839502046D2
:1022A000FFF796FF38BD222180F83910ECE770B5B2
:1022B000040004D094F83900002510B106E0012094
:1022C00070BD84F83850204600F020F8022084F8D1
:1022D00039002068C16821F40051C160204600F037
:1022E000AFFD2068016921F49041016120684169D6
:1022F00021F02A0141612068C16841F40051C160A8
:10230000E563012084F83900002070BD2DE9F0411B
:102310000546434F036800244248022103228026D9
:1023200086B0BB422BD1C36943F40033C361C0699B
:102330003D4F00F4003004900420CDE900010392E9
:1023400069463846FEF750FC0820CDE9000469468E
:1023500038460294FEF748FC354F3448C7E900047C
:10236000C7E9024620203C61C7E905403846FC61C8
:10237000FEF7C2FB6F637D6206B0BDE8F0812D4FB2
:10238000BB42F9D1C36943F48023C361C06903929E
:1023900000F4802004903815CDE90001264F6946ED
:1023A0003846FEF721FCF814CDE9000469463846AA
:1023B0000294FEF719FC1E4F1C483837503801C7ED
:1023C000102051C74FF4805847F8104918487C61D5
:1023D000C7E906483830FEF78FFB2F637D62144F44
:1023E000124870373C38C7E90004C7E902463C612F
:1023F0007C61C7E906483846FEF77EFB6F63002222
:10240000022127207D62FEF747FD2720FEF738FDD9
:10241000A7F1B0000068C16841F01001C160ABE7EE
:102420000044004000100240000801406C000240DF
:102430004802002000480040000C014070B50446EE
:1024400090F83900012801D0122832D169B362B363
:1024500094F8380001282CD0012084F83800A162BB
:10246000A2850025E56394F8390012281FD02220A8
:1024700084F83900636B10489862636B0F48D86228
:10248000636B0F48186308461346666B2168024663
:102490003046091DFEF758FB2068416941F04001B4
:1024A000416184F83850002070BD012070BD322099
:1024B000DEE7022070BD0000592D00088F2D0008B6
:1024C000392D0008704770472DE9F047044690F811
:1024D000390099460D46012801D0222858D12DB344
:1024E00022B394F83800012852D0012684F83860CD
:1024F0000027E76394F8390022281AD05FF0120011
:1025000084F83900A284E2844FF48058E08C4B4672
:10251000401EE084A0684FF0000240454FF080016B
:10252000204613D100F02FFD08BB04E00120BDE8D8
:10253000F0873220E4E728882168C0F3080048606B
:10254000206908B16D1C08E0AD1C06E000F01BFD21
:1025500068B9216815F8010B4860E08C0028D5D1D6
:102560004B4600224021204600F00DFD08B103201B
:10257000DDE794F83900322806D084F8396000BFCE
:1025800084F838700020D2E7222084F83900F7E779
:102590000220CCE77047FEE7FEB510480E49002444
:1025A0000160891501254461C0E902150226066112
:1025B0004FF460214460C161FEF75EF8CDE900454B
:1025C000694606480294FDF72FFFCDE9005669469B
:1025D0000248FDF729FFFEBD0024014060000020F5
:1025E000194808B5416941F0010141614069002283
:1025F00000F00100009003210B20FEF74DFC0B20A2
:10260000FEF73EFC002211460C20FEF745FC0C2094
:10261000FEF736FC002211460D20FEF73DFC0D2092
:10262000FEF72EFC002211460E20FEF735FC0E2090
:10263000FEF726FC002211461020FEF72DFCBDE817
:1026400008401020FEF71CBC001002402DE9F043AA
:10265000334885B0816941F010018161816901F0E1
:1026600010010491816941F020018161816901F0CB
:1026700020010491816941F004018161816901F0C7
:1026800004010491816941F0080181618069DFF8EA
:10269000948000F008004FF48076049000223146C8
:1026A0004046FEF77FFBDFF880900022C0214846BD
:1026B000FEF778FB1D480324CDE90040002569465C
:1026C00002954846FEF790FA0127CDE900670226F9
:1026D000694640460396FEF787FA3002CDE90006C8
:1026E000694603944046FEF77FFA7002CDE9000583
:1026F000694640460295FEF777FAB002CDE900043C
:1027000069464046FEF770FA4FF48650CDE900075F
:10271000694603964846FEF767FA05B0BDE8F083C0
:102720000010024000080140000C014000001110A0
:102730000B480A494FF4007201604FF48271416006
:1027400000218160C1600161C0E90512C1610162BF
:10275000416281620A21C162FFF7B6B900380040C8
:10276000C800002010B514488AB012490160232126
:102770000024C0E90114FF21C0E90314FFF7E4FCC1
:10278000079407A90C480894FFF732FC6020CDE9B4
:10279000000402940022694607480494FFF76CFC89
:1027A000042269460448FFF767FC0348FFF748FC2A
:1027B0000AB010BD00040040580100200848074935
:1027C00001604FF416514160002181600C22C1600C
:1027D000C0E904128161C161FFF769BD0044004096
:1027E000C80100200848074901604FF4E131416009
:1027F000002181600C22C160C0E904128161C161C5
:10280000FFF755BD0048004008020020FEE7FEF734
:10281000DDBD0907090E002806DA00F00F0000F1FF
:10282000E02080F8141D704700F1E02080F80014CB
:10283000704700000148FFF7EFB80000C800002013
:1028400001B582B04FF47A700090012301AA02A969
:102850000248FFF7BDF99DF804000EBDC800002036
:1028600010B5406A0021C186C187012180F851104E
:10287000416D41F008014165FFF7CDF810BD10B57D
:10288000406AFFF7A4F910BD10B5406AFFF78AFB54
:1028900010BD38B50025ADF80050446A00680068E6
:1028A00080065FD42068416821F001014160206802
:1028B000416821F002014160A06AB0F5005F37D1A4
:1028C0000A2300220121204600F0B1F818B1606D02
:1028D00040F0100060652068C068ADF80000BDF8E9
:1028E000000001220A231146204600F0A0F818B18A
:1028F000606D40F01000606520688068C043C006CD
:1029000016D4204600F091F801280DD1606D40F0FA
:10291000020060652068016821F4005101602068B0
:10292000016841F40051016021686FF01000886077
:102930006068B0F5827F0BD1A068B0F5004F02D07F
:10294000B0F5806F04D12068016821F0400101607A
:10295000E587012084F85100606D18B12046FFF72B
:102960005AF838BD2046FFF731F938BD38B5002593
:10297000ADF80050446A00680068800651D4A06A2F
:10298000B0F5005F22D101220A231146204600F053
:102990004EF850B90A2300220121204600F047F8E2
:1029A00018B1606D40F0100060652068C168ADF836
:1029B0000010BDF800108168C943C90606D4616DD6
:1029C00041F0020161656FF0100181600A2300226D
:1029D0000221204600F02BF818B1606D40F0100085
:1029E00060652068416821F0020141600A230122EC
:1029F0008021204600F01BF818B1606D40F01000F7
:102A000060652068416821F001014160E586E58745
:102A1000012084F85100606D18B12046FEF7FBFFDD
:102A200038BD2046FFF7B6FA38BD012070472DE9C2
:102A3000F0471D4690460E460446FEF7B9F9074694
:102A40005FEA08004FF000084FF4005A4FF0010908
:102A500026D034E0681C23D025B1FEF7A9F9C01BAD
:102A6000A8421DD92068416821F0E001416020683A
:102A7000016821F040010160A06A504509D1206839
:102A8000016821F4005101602068016841F400519F
:102A9000016084F8519084F850800320BDE8F087ED
:102AA0002068806836EA0000D4D10DE0681C06D0AA
:102AB000002DD7D0FEF77CF9C01BA842D2D82068E1
:102AC000806836EA0000F1D00020E7E710B5FEF795
:102AD00075F9BDE81040FFF787BA30B593B009200B
:102AE000012100904FF48030002404910691CDE93B
:102AF00001040225CDE90750000109906846FEF760
:102B000071FC0F20CDE90A056802CDE90C400221D5
:102B10000AA80E94FEF788FAA80311900F950FA843
:102B2000FEF7ECF9FEF7C4FB4FF47A71B0FBF1F05D
:102B3000FFF746FA0420FFF736FA00221146501E2E
:102B4000FEF7AAF913B030BD0D48016841F001014C
:102B5000016041680B4A1140416001680A4A114016
:102B60000160016821F480210160416821F4FE01C7
:102B700041604FF41F0181600449C0030860704741
:102B8000001002400000FFF8FFFFF6FE08ED00E035
:102B9000F0B50268144B154C154D4FF08047984224
:102BA00005D0B84203D0A04201D0A84203D122F000
:102BB00070064A683243984205D0B84203D0A0421A
:102BC00001D0A84203D122F44074CA6822430260B3
:102BD0008A68C2620A688262984201D10969016307
:102BE00001214161F0BD0000002C014000040040C3
:102BF0000008004030B5026A22F001020262026A57
:102C00004368846924F073050C682C4322F00205A4
:102C10008A682A430A4DA8420BD122F00805CA68E7
:102C200023F440732A434D6922F004021D438B694B
:102C30002B434360846149684163026230BD0000F8
:102C4000002C014030B5026A22F010020262026AD2
:102C5000436884690D6824F4E64444EA05248D68D9
:102C600022F0200242EA05120B4DA8420ED1CD6897
:102C700022F0800242EA05124D6923F4406343EAE0
:102C800085038D6922F0400243EA85034360846135
:102C900049688163026230BD002C014030B5026A90
:102CA00022F480720262036A4268C46923F40073EA
:102CB00024F073050C682C438D6843EA05230C4D02
:102CC000A8420ED1CD6823F4006343EA05234D6981
:102CD00022F4405242EA05128D6923F4806342EAED
:102CE00005124260C4614968C163036230BD0000DF
:102CF000002C014030B5026A22F480520262046A5C
:102D00004268C3690D6823F4E64343EA05238D68EE
:102D100024F4005444EA0534064DA84204D14D6918
:102D200022F4804242EA85124260C361496801642C
:102D3000046230BD002C014010B5406A0021C185FD
:102D4000C184012180F83910C16B41F01001C163C9
:102D5000FFF73EFA10BD000010B50146406A096851
:102D6000096889060ED40021C18501684A6922F0EC
:102D700040024A6190F83910322906D05FF0010113
:102D800080F83910FFF79EFB10BD1221F8E710B54F
:102D9000406AFFF798FB10BD10B590F83910222952
:102DA00003D0322901D0022010BD8168B1F5805FC7
:102DB00011D00169002901681FD0496801F07F0323
:102DC000816A4A1C82620B70C18D491E0904090C7C
:102DD000C18518D030E00269816A002A0268526811
:102DE00005D0D2B20A80816A491C8162ECE7C2F345
:102DF00008020A80816A891CF7E74A68816A4B1CCD
:102E000083620A70E0E70168CA6822F02002CA60A3
:102E100090F83910322911D00168CA6822F4807202
:102E2000CA6001684A6922F001024A615FF001014B
:102E300080F83910FFF746FB002010BD1221F7E79C
:102E40002DE9F041044600680169E26821F440512F
:102E5000114301612169A068084361690843216841
:102E6000CA6841F20C639A430243CA602068416910
:102E7000A26921F440711143416128492068642509
:102E80004FF03208884218D1FEF742FA00EBC00139
:102E900001EB001061688900B0FBF1F0B0FBF5F6C2
:102EA000FEF736FA00EBC00101EB00106168890003
:102EB000B0FBF1F7FEF72CFA17E0FEF713FA00EB80
:102EC000C00101EB001061688900B0FBF1F0B0FBBC
:102ED000F5F6FEF707FA00EBC00101EB00106168A0
:102EE0008900B0FBF1F7FEF7FDF900EBC00101EB43
:102EF000001061688900B0FBF1F0B0FBF5F06FF0F5
:102F00001801484307EB800108EB0110B0FBF5F016
:102F1000216866F31F108860BDE8F0810038014029
:102F200090F83910122903D0322901D002207047BD
:102F30008168B1F5805F016A0BD04A1C02620268A9
:102F400009785160C18C491E0904090CC1840ED056
:102F500017E009880268C1F308015160016900297E
:102F6000016A02D0491C0162ECE7891CFBE7016899
:102F7000CA6822F08002CA600068C16841F040015E
:102F8000C160002070472DE9F0471D4690460E466F
:102F90000446FDF70DFF07465FEA08004FF0000901
:102FA0004FF0010808D030E0681C05D095B1FDF75E
:102FB000FFFEC01BA8420DD82068006836EA00005A
:102FC000F2D127E0681C20D025B1FDF7F1FEC01B2F
:102FD000A8421AD92068C16821F08001C160206828
:102FE000C16821F02001C1602068C16821F48071AE
:102FF000C1602068416921F00101416184F8398094
:1030000084F838900320BDE8F0872068006836EA2D
:103010000000D7D00020F6E7064810B50068006829
:10302000C00602D5034800F009F8BDE81040014889
:10303000FFF7D0B808020020FEE7000038B50168AD
:1030400004460868C043C0062ED4184881422BD1DC
:103050000868486800900868486815480068406833
:1030600085B22046FFF7A0F8C5F1320082B21148C0
:10307000028011480178A0290BD1104410F8010CEE
:10308000C02806D10C490D48FDF74CF80C49012029
:10309000087032210848FDF75EF82046BDE8384048
:1030A00032220549FFF7CAB938BD00000048004088
:1030B000B802002002000020940100202C00002013
:1030C0000000002002E008C8121F08C1002AFAD13F
:1030D00070477047002001E001C1121F002AFBD198
:1030E00070470000FDF772FEFFF7F7FCFFF7AEFA3E
:1030F000FFF776FAFFF750FAFFF760FBFFF772FB76
:10310000FFF7EBFCFFF72EFBFFF712FBFDF7B2F822
:103110004FF47A742046FDF743FD32220C490D48E6
:10312000FFF78CF9C820FDF73BFDFDF779F80A4D54
:1031300000262046FDF734FD28780128F9D12346E2
:103140006A8806490348FFF7BFF92E70F1E70000CF
:103150009401002008020020000000202C00002024
:10316000000000000102030401020304060708092D
:1031700090310008000000202C000000C43000083E
:10318000BC3100082C000020E4060000D430000808
:10319000000000001200000000000000000000001D
:1031A000000000000000000000000000000000001F
:0C31B000000605000000000000A24A0418
:04000005080000ED02
:00000001FF
